:020000040800F2
:100000000896002045010008CB2F0008651800085D
:10001000C92F00080B0A0008213F0008000000005B
:10002000000000000000000000000000E13B0008AC
:10003000EB0A000800000000ED310008293C000830
:100040005F0100085F0100085F0100085F01000810
:100050005F0100085F010008B91100085F01000896
:100060005F0100085F0100085F0100085F010008F0
:100070005F0100085F0100085F0100085F010008E0
:100080005F0100085F010008AD0900085F0100087A
:100090005F0100085F0100085F0100085F010008C0
:1000A0005F0100085F0100085F0100085F010008B0
:1000B0005F0100085F0100085F0100085F010008A0
:1000C0005F0100085F0100085F0100085F01000890
:1000D0005F010008B93D00085F0100085F010008EA
:1000E000F91100085F0100085F0100085F010008C6
:1000F0005F0100085F0100085F0100085F01000860
:100100005F0100085F0100085F0100085F0100084F
:100110005F0100085F0100085F0100085F0100083F
:100120005F0100085F0100085F0100085F0100082F
:10013000DFF80CD000F06EFB00480047D9800008C3
:10014000089600200648804706480047FEE7FEE77D
:10015000FEE7FEE7FEE7FEE7FEE7FEE7FEE7FEE777
:100160002D3C000831010008D2B201E000F8012B5B
:10017000491EFBD270470022F6E710B513460A4627
:1001800004461946FFF7F0FF204610BD421C10F848
:10019000011B0029FBD1801A7047034611F8012B7F
:1001A00000F8012B002AF9D118467047F0B480EA14
:1001B0000102D40F4200B2EB410F02D202460846C0
:1001C00011464A0042D0C30DDDB2C1F3C752AD1A89
:1001D000202D35DAC1F3160141F4000204B1524278
:1001E000C5F1200602FA06F12A411044B3EBD05FB4
:1001F00023D0C4B1012DA0EBC35009DCF0BC4FF0FB
:10020000004202EAC352DBB200F5000000F01BB965
:10021000400000F1807000EBC350A0F1807040EA14
:10022000D170490009E0490841EAC071A0EBC35010
:1002300000F50000400800EBC350F0BC00F0FAB835
:100240006142012202EB4101001BF6E7F0BC70475E
:1002500081F00041AAE780F00040A7E780EA0102B0
:1002600010B502F00043400022D04A001FD0010E1A
:1002700001EB1261C0F35600C2F3560240F40000D5
:1002800042F40002A0FB022000047F39140400D0D5
:10029000401C50EA124001D44000491EC2B20C0674
:1002A00004EBD010401C4008802A02D003E000205C
:1002B00010BD20F00100002900DA0020184310BD15
:1002C00030B480EA010202F0004530F0004221F033
:1002D000004013D090B1C30DD40DC2F31601C0F38A
:1002E0001600E41A41F4000140F400027D3491420A
:1002F00001D3641C00E04900002C02DA30BC00206D
:1003000070474FF400000023914201D3891A034340
:1003100040084FEA4101F7D151B1914202D14FF06B
:10032000004105E002D24FF0010101E06FF0010150
:1003300003EBC450284430BC00F07CB8C10F80EA05
:10034000E0700844CA079623002100F07CB800F052
:10035000004220F00040C10DC0F3160040F4000040
:100360007F2901DA00207047962903DCC1F196014C
:10037000C84001E096398840002AF4D040427047D6
:1003800000F0004230F000400AD0C10D01F560716C
:10039000C0F3160042EA0151C208400711437047FA
:1003A00000200146704730B50B4601460020202250
:1003B000012409E021FA02F59D4205D303FA02F572
:1003C000491B04FA02F52844151EA2F10102F1DCD2
:1003D00030BD2DE9F05F0546002092469B468846D9
:1003E0000646814640241BE02846414647462246B1
:1003F00000F031FA53465A46C01A914110D31146C3
:100400001846224600F018FA2D1A67EB01084F46ED
:1004100022460120002100F00FFA17EB00094E419F
:10042000201EA4F10104DFDC484631462A4643463B
:10043000BDE8F09F0029A8BF7047401C490008BFD5
:1004400020F00100704710B4B0FA80FC00FA0CF004
:1004500050EA010404BF10BC704749B1CCF120043C
:1004600021FA04F411FA0CF118BF012121430843C9
:10047000A3EB0C01CB1D4FEA00614FEA102042BFF5
:10048000002010BC704700EBC35010440029A4BFEB
:1004900010BC7047401C490008BF20F0010010BC90
:1004A00070472DE9FE4F804681EA0300C00F0C46DD
:1004B000009021F0004123F00045B8EB0200A94173
:1004C00005D24046214690461C460B46024623F084
:1004D0000040104347D0270DC7F30A00C3F30A5169
:1004E0000290401A019040286BDAC3F3130040F4E5
:1004F000801B0098924620B10023D2EB030A63EBE5
:100500000B0B01985946C0F14002504600F094F997
:1005100006460D4650465946019A00F0ACF910EBDC
:1005200008006141002487EA115284EAE7731A4304
:1005300040D0009A62B3019A012A4FEA075215DCB3
:10054000001B61EB02014FF0004202EA0752CDE9C5
:100550000042001C41F5801132462B4600F0ACF9F8
:1005600003B0BDE8F08F40462146F9E7001B61EB80
:100570000201001C41F5801300185B412018A2F510
:10058000001747EB030140EAD570B6196D4111E041
:100590006D084FEA360645EAC0754FEA0752001B60
:1005A00061EB0201001C41F5801149084FEA30005F
:1005B0000019514132462B4603B0BDE8F04F00F020
:1005C0006CB90098012240000023D0EB020263EBDB
:1005D000E073009821464FEAE074B8EB000061EB4D
:1005E0000401E9E783F000435BE781F0004158E74D
:1005F0002DE9FE4F81EA030404F0004421F000419C
:1006000000944FF0000B23F0004350EA01045ED049
:1006100052EA03045BD0C3F30A54C1F30A552C44D5
:10062000A4F2F3340194A0FB0254C1F3130141F48A
:100630008011C3F3130343F4801301FB024400FB56
:10064000034E840A970A44EA815447EA8357A4FB7D
:10065000076802958D0A05FB07854FEA932C04FB7A
:100660000C542705029D4FEA065847EA1637B5EBAA
:1006700008056EEB070C870E920E47EA811742EAD7
:100680008312A7FB0201B6EB0B0164EB00042B0DF8
:1006900043EA0C335E1844EB1C50DA465146E7FB44
:1006A0000201C5F313044FEA0B3343EA14534FEA34
:1006B0000432019C43EA0603A4F10C040294009C5A
:1006C000CDE900B400F0F8F803B0BDE8F08F0020E9
:1006D0000146F9E72DE9F04D81EA030404F0004BEF
:1006E00021F0004514464FF0000A23F0004150EA83
:1006F000050220D054EA01021DD0C5F30A57024674
:10070000C5F31303C1F31300C1F30A5640F4801577
:1007100043F48013A7EB0608101BD64608F2FD38F9
:1007200073EB050002D308F1010801E092185B4168
:10073000B8F1000F03DA00200146BDE8F08D00207B
:100740004FF48011064684460EE0171B73EB050735
:1007500005D3121B63EB050306434CEA010C490861
:100760004FEA300092185B4150EA0107EDD152EA9E
:10077000030012D082EA040083EA0501084305D091
:10078000101BAB4106D20122002306E000224FF0ED
:10079000004302E06FF0010253101AEB06004CEB2D
:1007A000085110EB0A0041EB0B01BDE8F04D00F0E1
:1007B00074B8C1F30A52C1F3130140F2FF3341F49C
:1007C00080119A4202DA00200146704740F233431A
:1007D0009A42A2F2334202DC524200F03CB800F0EE
:1007E0002BB8000030B5041E71F1000404DB4FF09B
:1007F0000044404264EB0101141E73F1000405DB68
:100800001C464FF00043524263EB0403994208BF79
:10081000904230BD064C074D06E0E06840F0010311
:1008200094E8070098471034AC42F6D3FFF784FCF5
:10083000787D0308987D0308202A04DB203A00FA1B
:1008400002F1002070479140C2F1200320FA03F327
:10085000194390407047202A04DB203A21FA02F025
:100860000021704721FA02F3D040C2F120029140EA
:10087000084319467047202A06DBCB17203A41FA75
:1008800002F043EAE07306E041FA02F3D040C2F11D
:100890002002914008431946704710B5141E73F1A9
:1008A000000408DA401C41F1000192185B411A4330
:1008B00001D120F0010010BD2DE9F04D92469B467C
:1008C00011B1B1FA81F202E0B0FA80F22032904622
:1008D000FFF7B2FF04460F4640EA0A0041EA0B0167
:1008E00053465A46084313D0114653EA010019D023
:1008F000C8F140025046FFF7AEFF05460E4650468F
:1009000059464246FFF798FF084305D0012004E00E
:1009100020463946BDE8F08D0020054346EAE076E2
:100920002C4337430A986305E40AA0EB0800002231
:10093000FD0A44EA47540A3002D500200146E9E79F
:10094000010510196941DDE9084500196941BDE853
:10095000F04DA2E770B58C1810F8015B15F0070395
:1009600001D110F8013B2A1106D110F8012B03E048
:1009700010F8016B01F8016B5B1EF9D12B0705D450
:100980000023521E0DD401F8013BFAE710F8013B99
:10099000CB1A921C03E013F8015B01F8015B521EB5
:1009A000F9D5A142D8D3002070BD000010B50A4C83
:1009B0004FF40871204600F01AF8012804D12046AF
:1009C00000F012F80549088020464FF40871BDE890
:1009D000104000F005B800BF002801409C0900202D
:1009E0006FEA112101607047C06C80B270474268A5
:1009F000006800EA11201140002818BF0120C9B288
:100A0000002918BF012108407047FEE7E0B54FF606
:100A1000FF704FF6FF7102F091FA56480121CDE9BF
:100A200000110021038854480088523882B25120B6
:100A300001F0F8FE8CBD00BF0D48032101714FF697
:100A4000FF7101604FF6FF704FF6FF7102F076BA4A
:100A500080680749087108884FF6FF7102F06EBA86
:100A600080680349086080B24FF6FF7102F066BAF1
:100A7000FC19002010B502684FF6FE73002942F001
:100A8000010408BF02EA0304046010BD044A010F18
:100A900061F38A221168084018BF0120704700BF27
:100AA000000002402DE9F043026847F6F073D1E9F7
:100AB0000258D1E90479D1E90646D1E900CE9A433A
:100AC0002A43D1E90853896A2A433A4342EA090290
:100AD000224332431A4311430160C0F80480C0F836
:100AE00008C0C0F80CE0BDE8F08370472DE9F0477E
:100AF000DFF85C904FF0000ABAF1020F08BFBDE8C2
:100B0000F0874FF00008B8F1200F1ED00A2008F03F
:100B1000BDF94FEA88070026042E13D0B81909EB57
:100B20008A2100240D18082C0AD02878A04000063D
:100B30004FF02A0058BF202008F0A8F90134F2E74E
:100B40000136E9E708F10108DDE70AF1010AD3E718
:100B5000F800002080B500204FF6FF7102F0EEF99A
:100B6000044800210388044802880020BDE8804032
:100B700001F0F6BA08000020060000202DE9FC4133
:100B80000446007BE0B14FF6FF704FF6FF7102F0B4
:100B9000D5F92646274625462088012335F8042F17
:100BA00036F806CF37F8021FCDE90033121AACEB46
:100BB000010392B29BB201F035FE4FF6FF781BE0C5
:100BC0004CF218604FF6FF714CF2186802F0B6F95B
:100BD0002646274625462088012335F8042F36F877
:100BE00006CF37F8021FCDE90033121AACEB010330
:100BF00092B29BB201F016FE4FF47840414602F0EB
:100C00009DF9164802F09EF920882988022233882F
:100C1000091A203991FBF2F10844398880B25B1A35
:100C2000103B93FBF2F211440DA289B201F0DEFBFE
:100C30004FF404704FF6FF7102F080F92A88208883
:100C40003388398801240025CDE90054121A5B1A33
:100C500092B29BB201F0E6FDBDE8FC811C000020D1
:100C6000C7E5C6C100000000BCB50446007BA8B1C2
:100C70004FF6FF704FF6FF7102F060F9E38861886C
:100C8000A28820880125CDE90055121A5B1A92B27C
:100C90009BB201F0C7FD4FF6FF7013E020894FF6BD
:100CA000FF7102F04BF9E3886188A2882088012552
:100CB000CDE90055121A5B1A92B29BB201F0B2FD57
:100CC0004AF653504FF6FF7102F038F9E388618815
:100CD000A288208802240025CDE90054121A5B1A4C
:100CE00092B29BB201F09EFDBCBD00002DE9FC411B
:100CF0000446007BE0B14FF6FF704FF6FF7102F043
:100D00001DF92646274625462088012335F8042F5D
:100D100036F806CF37F8021FCDE90033121AACEBD4
:100D2000010392B29BB201F07DFD4FF6FF781BE00C
:100D30004CF218604FF6FF714CF2186802F0FEF8A2
:100D40002646274625462088012335F8042F36F805
:100D500006CF37F8021FCDE90033121AACEB0103BE
:100D600092B29BB201F05EFD4FF47840414602F032
:100D7000E5F8164802F0E6F8208829880222338830
:100D8000091A203991FBF2F10844398880B25B1AC4
:100D9000103B93FBF2F211440DA289B201F026FB45
:100DA0004FF404704FF6FF7102F0C8F82A882088CB
:100DB0003388398801240025CDE90054121A5B1AC2
:100DC00092B29BB201F02EFDBDE8FC811C00002018
:100DD000CFF0C6A4000000002DE9FC410446007BD2
:100DE000B8B14FF6FF704FF6FF7102F0A7F8E38835
:100DF0006188A28820880125CDE90055121A5B1A66
:100E000092B29BB201F00EFD4FF404704FF6FF71E9
:100E100016E04CF218604FF6FF7102F08FF8E3888D
:100E20006188A28820880125CDE90055121A5B1A35
:100E300092B29BB201F0F6FC4FF404704CF21861D0
:100E400002F07CF8E3886188A28820880026CDE93A
:100E50000065121A5B1A92B29BB201F0E3FC00200B
:100E60004FF6FF7102F06AF8A068072800F28F8041
:100E7000DFE800F0041E242C32383E5300204FF6E9
:100E8000FF7102F05BF8E1886388A2882088012462
:100E900000940224C91A1430143A91FBF4F180B280
:100EA00092B2194489B20B4601F06CFCBDE8FC819A
:100EB000A2882088E188638801241EE0E188638895
:100EC000A288208802240094C91A19E0A2882088E8
:100ED000E1886388032410E0A2882088E188638881
:100EE00004240AE0A2882088E1886388082404E0BA
:100EF000A2882088E18863880A240094C91A022401
:100F000091FBF4F11430143A80B292B2194489B2D0
:100F10000B4601F091FFBDE8FC8100204FF6FF7108
:100F2000002502F00BF8E18863880227A288208858
:100F30004FF00108CDF80080C91A0530053A91FB41
:100F4000F7F180B292B2194489B20B4601F01AFC53
:100F50000A262088A188AAB2091A0A3991FBF6F15B
:100F6000914214DDE188628805EB8503CDF80080AD
:100F700000EB43000123891A053091FBF7F180B2A1
:100F80001144032289B201F01DFB0135E1E7BDE800
:100F9000FC8100007CB55228A8BF522A00DA7CBD33
:100FA0001C46069B1B79082BF9D8DFE803F0050ED9
:100FB00012181E242A375000012380B289B292B23F
:100FC0000093A3B201F0DEFB7CBD522CE7DB0123D2
:100FD0001CE05328A8BF532AE1DB022316E0542863
:100FE000A8BF542ADBDB032310E05528A8BF552AED
:100FF000D5DB04230AE05928A8BF592ACFDB0823F0
:1010000004E05B28A8BF5B2AC9DB0A23009380B2F7
:1010100089B292B2A3B201F00FFF7CBD5428A8BFE1
:10102000542ABCDBB1F1FF3F38DD95B2A4B20126F2
:1010300080B289B22A462346009601F0A3FB2846D7
:10104000214603220123009601F0BCFA7CBD652AEB
:10105000A5DB164802F11401008881423FF79FAFDB
:10106000142CFFF69CAF124804F114010088814251
:101070003FF795AF4FF6FF704FF6FF71A2F11405E1
:1010800001F05CFFA4F11401012028222823CDE9FE
:101090000000A8B289B201F0C5FB7CBD90B2A1B23C
:1010A000012202B0BDE8704001F03EBE0600002003
:1010B000080000207CB508200121012402F0B0F8CE
:1010C0000E485A4D01AE31460190284600F03EFBD5
:1010D0000B4831460190284600F038FB00F00AFF2B
:1010E000A02000F0A7FD00F047FF054600F018FF24
:1010F00015B100F015FF002420467CBD400003140C
:10110000800003142DE9F84F15460E46834600244F
:101110000FF268080FF278090FF2880AAC421FD06C
:10112000A4B900F0FDFE0027632F1ED800F0E2FEF8
:10113000A02000F07FFD013700F01EFF0028F3D152
:10114000F0B200F077FD00F017FF68B91BF804005B
:1011500000F070FD00F010FF20B901340136DDE72A
:10116000012406E0D04600E0C846404607F094FE61
:10117000002400F0D5FE2046BDE8F88F45455052CA
:101180004F4D20B4EDCEF3203420210D000000009F
:10119000454550524F4D20B4EDCEF3203520210D62
:1011A00000000000454550524F4D20B4EDCEF320D5
:1011B0003720210D0000000010B5012000F03EF89E
:1011C00088B10B4C0121204600F01AFB01280AD1FE
:1011D00004F580602021032205F0B6FE0548017861
:1011E00041F0080101700120BDE8104000F020B876
:1011F000000801400809002010B54FF4005000F02D
:101200001DF860B1094C4FF4005104F5806000F006
:10121000F7FA20B920462021032205F095FE4FF46D
:101220000050BDE8104000F003B800BF000C0140C2
:1012300001490860704700BF140401401C490A6856
:10124000024018BF01224969084018BF0120104020
:10125000704700BF10B582791549E2B102680B688A
:1012600093430B604B6893434B6003790B431C68BB
:1012700022431A6002688B6893438B60CB68934368
:10128000CB60407910280ED1886810438860C86808
:101290001043C86010BD0279006811430A6822EA51
:1012A0000000086010BD084301681143016010BDD3
:1012B0000004014008490A6822F010020A600A6826
:1012C00010430860704700BF03490A6802F0380203
:1012D00010430860704700BF00200240B0B54FF0D7
:1012E0002042064C002952F8203043F0010508BF87
:1012F00003EA040542F82050B0BD00BFFEFF0F0016
:10130000F0B500F10807D0E900C1C269F8CF194370
:1013100021432943314300F12006394311437CCE58
:10132000114319432143294341EA06024FF020416A
:1013300041F82C208268082A06D1026851F8223030
:1013400043F0400341F82230426BD0F800C092E8ED
:10135000F800D2E9051243EA041343EA052343EAFD
:10136000064343EA075343EA016111430E4A42F838
:101370002C10C16AB1F5804F0FD1816B91E81C0030
:10138000D1E90456896942EA031242EA042242EA98
:10139000055242EA0662114301E06FF070410068B5
:1013A000024A42F82010F0BD040000A0040100A091
:1013B00010B500210022044604F068FACD4901224C
:1013C000087000202146BDE8104004F037BD00BF82
:1013D00070B5ADF5806D6D460C4606464FF48061E4
:1013E0002846FEF7C8FE1DA0294607F0BDF8284D87
:1013F00031461322284604F047FD0146254E317040
:1014000031B125A007F0B0F829A007F045FD1EE096
:10141000334807F041FDE968284604F0D8F83070F9
:10142000A8B92846214604F0FDFD2846002104F015
:10143000CEF83346EA68694603F8040B284604F000
:1014400007FF307018B92748694607F08DF8104833
:1014500004F034F868460DF5806D70BD0A2A2A2A1A
:101460002A2A2A2A2A20CEC4BCFE2573B6A8CEBBBF
:10147000BACDB8F1CABDBBAFD0B4C8EBB9A6C4DC15
:10148000B2E2CAD4202A2A2A2A2A2A2A2A0D0A00A3
:10149000B41B002020090020212120B4F2BFAACED5
:1014A000C4BCFECAA7B0DCA3BA25640A00000000D1
:1014B000212120BBF2D0EDD0E8D2AAD4D9B4CED429
:1014C000CBD0D0A1B04661744673D2C6D6B2D3EBAE
:1014D000B6C1D0B4B2E2CAD4A1B1B9A4B3CC0000B1
:1014E0009727020877270208F0B589B0054619A0AA
:1014F00014460E4607F0D0FC6846314604F060FD05
:10150000214F387080B121A0314607F02DF83046C8
:1015100004F00DF938706846314604F051FD38701A
:1015200060B1014623A010E02A4807F0B5FC6846E8
:1015300003F0D2FF3870204605F048F828462146CF
:1015400004F060FF01463870234807F00DF809B039
:10155000F0BD00BF0A2A2A2A2A2A2A2A2A2A2A2051
:10156000C4BFC2BCB4B4BDA8BACDD6D8C3FCC3FBFB
:10157000B9A6C4DCB2E2CAD4202A2A2A2A2A2A2AF4
:101580002A2A2A0D0000000020090020212120B471
:10159000F2BFAAC4BFC2BC257320CAA7B0DCBFAAD1
:1015A000CABCB3A2CAD4B4B4BDA8D0C2B5C4C4BF67
:1015B000C2BC0A00212120B4B4BDA8D0C2B5C4C4A5
:1015C000BFC2BCBBB9CAC7CAA7B0DC2825642920E2
:1015D0000A0000005E2802085B270208BCB504462A
:1015E00026A007F059FC32A007F056FC40482146DF
:1015F000012204F023FC3F4D287070B101460D28F4
:101600000FD13E4807F048FC20460021002204F09C
:101610003DF9287068B13AA007E0374807F03CFC74
:1016200016E03E4806F0A0FF3D4807F035FC28785C
:10163000BCBD384807F030FC00202146012204F0F0
:10164000FDFB28702A482146012204F0F7FB287090
:10165000694601AA204603F048FF287001986FF000
:1016600007024169807802EB8101009A41435043AF
:101670008200294806F078FF0020BCBD0A2A2A2AE9
:101680002A2A2A2A2A2A2A20CDE2B2BF53504946C2
:101690006C617368B9D2D4D8CEC4BCFECFB5CDB31B
:1016A000202A2A2A2A2A2A2A2A2A2A0D0000000069
:1016B00020D4DACDE2B2BF53504920466C61736842
:1016C000B9D2D4D8CEC4BCFECFB5CDB3A3ACCEC4B2
:1016D000BCFECFB5CDB3B9D2D4D8CAB1BBE1B6D474
:1016E000535049C9E8B1B8B3F5CABCBBAF0D00004F
:1016F000D82B00202009002038280208BB27020828
:10170000A1B7B8F1CABDBBAFCAA7B0DCA1A3200D79
:1017100000000000182802082727020801270208F5
:10172000F2270208B0B50C22074C0F2302EA81020F
:1017300001F0FC010D599340904025EA03030B5141
:101740000A5910430851B0BD080001402DE9F0438B
:1017500091F8039009F00F085FEAC96344BF8B78E2
:1017600048EA030809880B0621D0046800254FF0D9
:10177000010E4FF00F0C0027082F17D00EFA07F3B9
:101780000B4210D00CFA05F208FA05F6B9F1480F31
:1017900024EA020242EA060404D0B9F1280F08BF85
:1017A000436100E0036104350137E5E70460B1F50A
:1017B000807F23D3446800254FF4807E4FF00F0CC8
:1017C0000027082F19D00EFA07F606EA0102B242E6
:1017D00010D10CFA05F308FA05F2B9F1480F24EA22
:1017E000030343EA020404D0B9F1280F08BF46619D
:1017F00000E0066104350137E3E74460BDE8F083AB
:101800008068084018BF01207047C068084018BFB2
:1018100001207047416170470161704770B50E4EFD
:1018200004460D46307818B901F036FE01203070BC
:10183000E8B2290A5E2201FB02000849202201EBDE
:101840000020082190FBF1F005490144204601F0F9
:10185000D7FE002070BD00BF9E0900200041C4FFDC
:1018600000301800FEE70288002942F4806308BFB8
:1018700022F4806303807047828A008B60F31742F2
:1018800002EA0100401AB0FA80F040097047C943EB
:10189000818270470288002942F0010308BF22F0CC
:1018A00001030380704700001CB5CC4C0020ADF84C
:1018B00006002046012100F01DF82046142100F00A
:1018C000A3F8ADF806002046A021002200F0A9F9F7
:1018D0002046142100F098F88007EAD504492046F4
:1018E000FFF7D5FF20460121BDE81C4000F00BB8F2
:1018F000000400100288002942F4807308BF22F41B
:101900008073038070470288002942F4007308BF87
:1019100022F400730380704782B00022019200928B
:101920000090080F019021F07F4001990029009953
:1019300003BF18310091000C143118BF00910099B9
:101940000968084018BF012002B0704770B586B022
:101950000446868801A80D4601F08CFC27480399AF
:1019600026F03F02264BB1FBF0F00243A280228812
:1019700022F0010222802A689A4208D85200B1FB64
:10198000F2F14FF6FC72114208BF04211FE0EB8810
:101990004BF6FF76B34204D102EB4202B1FBF2F107
:1019A00005E019235A43B1FBF2F141F480414FF4B1
:1019B000967250434FF47A72B0FBF2F00A466FF31E
:1019C0001F32B2FA82F2520911430E4A114301301A
:1019D0002084A1834FF6F531208840F0010020805B
:1019E00020880840A9880843698908432080A8897D
:1019F00029890843208106B070BD00BF40420F0016
:101A0000A08601000080FFFF81B0002200920090BC
:101A10000098084400900098008801B070470000CA
:101A20002DE9F84F824668A01446884607F034FA3C
:101A3000694F6A4E4FF44040388030464FF40031D1
:101A4000FFF76AFF30B13888411E00283980F4D191
:101A5000092092E030460121FFF74CFF604D4FF422
:101A6000C040388030462946FFF706FF30B9388835
:101A7000411E00283980F5D10A207EE03046A021A1
:101A80000022A94600F0CDF8564D4FF4C0403880F2
:101A900030462946FFF7F0FE30B93888411E00284D
:101AA0003980F5D10B2068E030460121FFF7F2FEC6
:101AB0003046414600F0E8F84FF4C04005F1020816
:101AC0004D46388030464146FFF7D6FE30B938885B
:101AD000411E00283980F5D10C204EE0304601210E
:101AE000FFF708FF4FF4C040388030462946FFF723
:101AF000C3FE30B93888411E00283980F5D10D2049
:101B00003BE03046A021012200F08BF84FF4C040AA
:101B100005F10108388030464146FFF7ADFE30B987
:101B20003888411E00283980F5D10E2025E005F1C6
:101B30003F084FF440495546A3461FFA8BF0012851
:101B400001D020B936E030460021FFF78CFEA7F81F
:101B5000009030464146FFF78FFE28B93888411E75
:101B600000283980F5D107E0304600F057F805F835
:101B7000010BABF1010BE0E7032000F0DFF91AA045
:101B800007F08AF91D4E1E4F0025AC420DD01AF801
:101B90000510304606F0E8FC05F00F000F2802D1D2
:101BA000384606F0E1FC0135EFE716A0BDE8F84F36
:101BB00007F072B930460121FFF7A5FE304601213A
:101BC000FFF751FEDBE700BF4932435FCAFDBEDDD0
:101BD000BCECB2E220000000A0090020005400404C
:101BE00001000300820007000A4932435FCAFDBEBC
:101BF000DDB6C1C8A1CDEAB1CF200000FD260208A4
:101C0000E22602080A2D2D2D3E4932435FCAFDBE51
:101C1000DDBCECB2E2CDEAB3C9000000008AC0B27C
:101C2000704741F00103002A08BF01F0FE03038260
:101C3000704700002DE9F843BF4DDB4F04460026F6
:101C40004FF080084FF04009072E18D860B20121EC
:101C5000B0F1FF3F4FF03200CCBFC5F80480C5F8AB
:101C60000080B84732200121C5F80090B8473220E3
:101C70000121C5F80490B84701366400E4E78020EC
:101C80002860BDE8F88300BF0182704780B5FFF788
:101C900011FA00B180BD8648BDE8804007F0FCB86D
:101CA0002DE9FE4F91460E46834600F023F9A02011
:101CB000FFF7C0FF00F060F908B143A010E0304624
:101CC000FFF7B8FF00F058F908B144A008E000F0B1
:101CD00011F9A120FFF7AEFF00F04EF950B144A07A
:101CE00007F0DAF800F01CF945A007F0D5F801205C
:101CF000BDE8FE8F464EA9F1010000274025CDF832
:101D0000049002904F4544D04FF0000A4FF0000875
:101D1000BAF1070F13D832200121356005F0C0FD5C
:101D200056F8089C32200121756005F0B9FD5FFA74
:101D300089F00AF1010AC00940EA4808E8E7029878
:101D40000BF80780B8420ED18020324C0121306060
:101D50003220A047322001213560A04732200121E6
:101D60007560A04711E02B4C4FF080093220012113
:101D7000C6F80490A047322001213560A0473220E8
:101D800001217560A047C6F80090DDF80490013786
:101D9000B8E700F0C5F820A007F07EF822A007F011
:101DA0007BF8524E524F0024A145A0D01BF80410DE
:101DB000304606F0D9FB04F00F000F2802D1384658
:101DC00007F06AF80134EFE7454550524F4D20B413
:101DD000EDCEF3203120210D00000000454550528A
:101DE0004F4D20B4EDCEF3203220210D0000000035
:101DF000454550524F4D20B4EDCEF33320210D0018
:101E0000B6C1454550524F4DB4EDCEF3210D000003
:101E1000100C0140A17800080AB6C1454550524F48
:101E20004DB3C9B9A6210D00454550524F4DB6C11D
:101E3000C8A1CAFDBEDDCAFDBEDDBCECB2E9200D05
:101E4000000000002DE9F04114460E460546FFF75C
:101E500031F928B3284631462246FFF753F908B333
:101E600018A007F019F89620012105F019FD19A016
:101E700007F012F81D4EDFF878800027BC420CD026
:101E8000E95D304606F070FB07F00F000F2802D125
:101E9000404607F001F80137F0E70020BDE8F08187
:101EA000034800E003A006F0F7FF0120BDE8F08141
:101EB000E5260208D0B4454550524F4DB4EDCEF35F
:101EC000210D0000D0B4454550524F4DB3C9B9A6BD
:101ED000210D0000454550524F4DD0B4C8EBCAFD0E
:101EE000BEDDBCECB2E9BCECB2E90D00FC26020898
:101EF0005C280208F8B5104C2B4F40258026322074
:101F0000012125602660B847322001216660B8476C
:101F10006560322001213A46BDE8F840104700BF15
:101F2000B0B5054C8025402001216560206032203D
:101F300005F0B6FC2560B0BD100C014010B504469C
:101F4000044805A105F065FD0AA02146BDE8104042
:101F500006F00ABB0038014049324320B5C8B4FD41
:101F6000B3ACCAB1216572726F72436F6465203D74
:101F70000000000025640A00F8B50A4C80200A4DD4
:101F80000121A0603220A847402632200121A6600E
:101F9000A847276832200121E660A847C7F3C01090
:101FA000F8BD00BF080C0140A17800082DE9F84FEA
:101FB000054656A01446884606F06EFFFFF774FCEF
:101FC000564E574F4FF44040308038460121FFF7BE
:101FD000A3FC30B13088411E00283180F5D10420A7
:101FE0005DE038460121BB46FFF784FC4D4F4FF4BE
:101FF0004040308058463946FFF73EFC30B93088C3
:10200000411E00283180F5D1052048E05846A02126
:102010000022FFF706FE4FF44040308042488146E0
:10202000871C58463946FFF727FC30B93088411ED7
:1020300000283180F5D1062031E0584641465F4600
:10204000FFF722FE4FF44040308038464946FFF704
:1020500013FC30B93088411E00283180F5D10720AB
:102060001DE009F104074FF4C048A946A2465FEA03
:102070000A4045D019F8011B5846AAF1010AFFF79A
:1020800003FEA6F8008058463946FFF7F5FB002806
:10209000EDD13088411E00283180F4D10820FFF7AF
:1020A0004DFF274EDFF89C800027B8B2A0420DD22A
:1020B00015F8011B304606F057FA07F00F000F28FD
:1020C00002D1404606F050FA0137EEE717A006F0BD
:1020D000E3FEFFF7E9FB1A4EDFF868800027BC42F9
:1020E00008BFBDE8F88FE95D304606F03DFA07F01D
:1020F0000F000F2802D1404606F036FA0137EEE70E
:1021000058460121FFF7FFFBCBE700BF4932435F91
:10211000D0B4C8EBCAFDBEDD20000000A00900203D
:102120000054004001000300800007000A493243C8
:102130005FD0B4C8EBCAFDBEDDCDEAB3C920000054
:10214000FD260208E22602080146044800294FF055
:10215000400108BFFFF760BBFFF75CBB00200140F8
:10216000B0B51C46154600F095FD464904FB05F048
:102170004988BDE8B04000F097BB00BF81B0009037
:10218000009810B100980138F9E701B070470000DD
:102190002DE9F04389B016460D46074600F092FB44
:1021A0000446384629461022102300F073FD2C20E7
:1021B00000F0D0FD0DF1040831464046FFF72EFB3C
:1021C000304F4FF00009B9F1100F19D04FEA490113
:1021D00018F819000026013118F8011041EA00250D
:1021E000102E0AD005FA06F00004388858BF2046A1
:1021F00080B200F0B3FD0136F2E709F10109E2E730
:1022000009B0BDE8F08300BF2DE9F04790460E46C7
:10221000074600F057FB04469E4831460068B0F878
:102220000490C588D0F800A038464A462B4600F0F6
:1022300031FD2C2000F08EFD4FF6E07005FB09F11A
:102240004FF000094044C1F3C70880B208FB00A664
:10225000DFF85CAD5FFA89F7B84598BFBDE8F08755
:102260000025082D0BD0F05DA8400006BAF800004C
:1022700058BF204680B200F071FD0135F1E709F149
:102280000109E7E7480900202DE9F84FDFF834ADF0
:10229000DFF81C8FDFF8149F8B46054600269BF85D
:1022A000002012B3DAF80010B0B28B88C988184445
:1022B000B8F80030984288BF0D44AFB2B9F800407A
:1022C0000F44A74288BF0025A9B2984288BF0026C4
:1022D000A74288BF0026B0B2FFF796FFDAF80000E9
:1022E0000BF1010B80880644D9E7BDE8F88F00BFE9
:1022F0002DE9F84FDFF8CC8CDFF8B49EDFF8ACAEF8
:102300008B46054600269BF80020002A41D0B0B23B
:102310007E2A20D8D8F800108B88C9881844B9F8CC
:102320000030984288BF0D44AFB2BAF800400F4465
:10233000A74288BF0025A9B2984288BF0026A742BD
:1023400088BF0026B0B2FFF75FFFD8F80000808892
:10235000064401201BE0B9F800201030904288BFED
:102360001035A9B2BAF800301031994288BF002563
:1023700088BF0026A9B2904288BF0026BBF8002083
:10238000B0B212BA120CFFF703FF103602208344DA
:10239000B9E7BDE8F88F00BF2DE9F041DFF8108EF6
:1023A0006E4F14460D4606462078E0B1B1B2B8F83B
:1023B000000001F11002824288BF1035A9B23B88AB
:1023C0001031994288BF002588BF0026A9B28242F9
:1023D00088BF002634F8022BB0B212BA120CFFF7F5
:1023E000D7FE1036E0E7BDE8F08100BF2DE9F84FD9
:1023F000DFF8D08BDFF8B89DDFF8B0AD93460D461F
:1024000006469BF80020002A41D0B0B27E2A20D890
:10241000D8F800108B88C9881844B9F80030984261
:1024200088BF0D44AFB2BAF800400F44A74288BF3E
:102430000025A9B2984288BF0026A74288BF00267F
:10244000B0B2FFF7E1FED8F8000080880644012012
:102450001BE0B9F800201030904288BF1035A9B2B7
:10246000BAF800301031994288BF002588BF002695
:10247000A9B2904288BF0026BBF80020B0B212BAC1
:10248000120CFFF785FE103602208344B9E7BDE841
:10249000F88F00BF240000202DE9F04F8BB0DDF84D
:1024A00050B01C4692460E4607464FEA5208154663
:1024B0009BF8000000284CD0A9B2BAB2274D1144B5
:1024C000254A1288914288BF2644B3B22D882344FE
:1024D000AB4284BF00260027914288BF0027812895
:1024E00014D3BBF8000003AD00BA010C2846FFF777
:1024F00095F90120102152462346009502901020A4
:1025000000F030FC4FF00209554615E0144B20381E
:102510000025C0B2029519689A88DB885843234683
:102520005043424601EBD00018210090102000F0EB
:1025300019FC4FF0010945460A48B1B22A46234624
:10254000009015980190B8B200F00EF82F44CB44DB
:10255000AEE70BB0BDE8F08F0600002008000020B9
:102560000C000020084E00202DE9F84F9946154632
:102570008846074600F0A6F90646384641462A46F0
:102580004B4600F087FB2C2000F0E4FBDDE90A7AE3
:10259000DFF81CBA4FF00008C84508BFBDE8F88F47
:1025A0000024A5420AD0385DBBF80010504508BF92
:1025B000314688B200F0D2FB0134F2E72F4408F133
:1025C0000108E9E72DE9F04F8DB00C910146032099
:1025D00016464FF000090193A0EB4202099133B275
:1025E0000FFA89F098420A9300F3AC80019809EB46
:1025F00001030492CDE9026900284CD00C9808939D
:10260000A0EB090248440690A1EB0900079205904F
:102610000A990FFA89F088427CDC0C98169DDFF845
:102620002CA148442A4686B298B231460B90D04736
:10263000059831462A4687B23846D047DDF82480CF
:102640002A46A8EB090084B2069886B22046314695
:10265000D04707982A461FFA80FB20465946D047A4
:102660000C982A46A0EB090084B238462146D04790
:102670000B9821462A46D04709EB080059462A46BE
:1026800084B22046D047204631462A46D047089B90
:1026900009F10109BCE7DDF830B0DDF858802B4FB7
:1026A0008A4606EB0B00424684B298B221460B9054
:1026B000B847AAEB09004D46214642461FFA80F969
:1026C0004846B847AAEB06003C46424687B205EBAF
:1026D0000B0081B238460A91A047ABEB0500424699
:1026E00085B238462946A047ABEB0600424687B282
:1026F00048463946A0470B9839464246A04706EB64
:102700000A002946424686B23046A0470A9930461A
:102710004246A047049ADDF80C9010B209F1010975
:10272000B0F1FF3F07DD029E0A21A9EB0600013E42
:1027300001EB800003E00620029E00EB890009996E
:1027400002444CE70DB0BDE8F08F00BF292D000812
:102750007CB505460C460A38022605F10A0180B20E
:10276000234600968AB2214600F00CF8A4F10A0034
:102770002A46009681B204F10A0083B2284600F08E
:1027800001F87CBD2DE9FE4F5B1A05460C46184644
:10279000002BA2EB050818BF4FF0FF30C8BF012087
:1027A0000190B8F1000F404618BF4FF0FF30C8BF8E
:1027B0000120009048BFC8F10008002B00D55B4203
:1027C0001F4698454FF000094FF0000A4FF0000BEC
:1027D000C8BF4746781C029002991FFA89F08142CF
:1027E00038BFBDE8FE8F0C9AA8B2A1B21E4600F019
:1027F0009BFA0BEB06000199334609F10109B84237
:10280000C8BF0C440AEB0801009EB942C8BF35445A
:10281000B0EB070BD8BF8346B1EB070AD8BF8A4697
:10282000DAE700002DE9F843054608981E461746EA
:102830000C4668B1284621463A46334600F02AFA4B
:10284000174906FB07F00988BDE8F84300F02CB8EB
:10285000E819DDF82480DFF84C9021462346013842
:1028600087B22846CDF800803A46C847A0193A46B4
:10287000CDF80080013886B2284631463346C84735
:10288000284621462A463346CDF80080C8473846B8
:1028900021463A463346CDF80080C847BDE8F88364
:1028A0004809002085270008B0B505462C200C46B5
:1028B00000F050FA25B1204600F050FA013DF9E74A
:1028C000B0BD0000B0B5012200F02AFA2E2000F0C1
:1028D00041FA084DA847A8470446A84704F47841A0
:1028E00041EAD024A8476FF01F0101EA50102044AC
:1028F000B0BD00BFE92C000807283AD810B51D4923
:1029000010F001024FF036034FF0F002087008BFDC
:102910004FF4A0728A804FEA40104FF4A07200F189
:10292000080008BFF0224A804FF0D84213804FF0D1
:10293000DA4318802A2010800020188018804C88E4
:10294000013CA4B2240A1C804C88013CE4B21C80E7
:102950002B241480188018808888013880B2000ADF
:10296000188088880138C0B218802C201080BDE8FB
:1029700010407047040000202DE9F04F97B04FF44D
:10298000B0700121012600F04BFCBB48BB4D08ACE8
:10299000BB4F214608902846B8474FF400402146D7
:1029A000ADF820002846B84728462146ADF82060FB
:1029B000B84702202146ADF820002846B8478020BD
:1029C00005F580662146ADF820003046B8474FF443
:1029D000807930462146ADF82090B8474FF4007A10
:1029E00030462146ADF820A0B8474FF48068304605
:1029F0002146ADF82080B8474FF400602146ADF87D
:102A000020003046B8474FF4805B30462146ADF891
:102A100020B0B8474FF400502146ADF820003046B2
:102A2000B8474FF480402146ADF820003046B84703
:102A30004FF400402146ADF820003046B847284604
:102A40002146ADF82090B84728462146ADF820A091
:102A5000B84728462146ADF82080B8478948214626
:102A600008902846B8474FF0200828462146ADF880
:102A70002080B84705F540652146ADF820B02846CE
:102A8000B84704202146ADF820003046B8477E48BC
:102A9000214608902846B8477C4821460890284699
:102AA000B8474FF48070012100F0A2FB4FF0805036
:102AB00000244FF006094FF0010A079001A8CDF855
:102AC0000C90CDF804A00694CDE90444029416902D
:102AD000CDE914400820CDE91244CDE9104BCDE9F1
:102AE0000E444FF0100B0C940A9008A8CDF82CB0AF
:102AF000CDE90894FEF704FC06200121FEF7EEFB69
:102B000000F0F6F80120FFF71FFB4FF0D846CF206A
:102B10004FF0DA4730214FF0030E4FF0390CC0234D
:102B2000C525E122308081203C8038803980ED212C
:102B30003180642139801221A7F800E03980388083
:102B4000E820B6213080852038807820A7F800B0B2
:102B50003880CB2030802C20A7F800C0388034206B
:102B60003C80388002203880F7203080EA20A7F8A7
:102B700000804FF011083080B1203C803C803080D4
:102B80001B203C80388031800A213980A221398085
:102B9000338035233B80C1233380A7F80080358004
:102BA000452509233D803D80C72535803980F221A8
:102BB00026253180E0213C803580A7F800A04FF029
:102BC000170A31800F2139803D8024253D800B2557
:102BD0003D800E253D8054253B803D80A8253D80CD
:102BE00046253D800C253D80A7F800A03B800723AB
:102BF00039803B803C80328019223C803A8038808A
:102C00000420472238802A20A7F800B03B80388073
:102C10003A803022A7F800C0A7F800E0A7F800909B
:102C2000A7F800903A8038223A80398036213180E6
:102C3000C82139803080EF203C803C803C80388047
:102C40002B20308001203C803C8038803F20388021
:102C50003A203080552038800D48A6F80080FFF7D4
:102C60008DFA292030800620FFF746FE358038880F
:102C7000388817B0BDE8F08F0040031800140140F9
:102C80004D1700081000031800080310400003103F
:102C9000FCBF02002DE9F04107462A20984616465F
:102CA0000C4600F057F80F4D380AA847F8B2A8476D
:102CB000B819461EC6F30F20A847F0B2A8472B202C
:102CC00000F048F8200AA847E0B2A84704EB080043
:102CD000441EC4F30F20A847E0B22946BDE8F041E6
:102CE000084700BF5D2D00084FF0DA4000887047AC
:102CF00010B50A4C4FF400612046FEF78BFD40F6FC
:102D0000FF20FFF73BFA20464FF40061FEF784FDF9
:102D100040F6FF20BDE81040FFF730BA0020014028
:102D20001346FFF7B7BF000010B51446A44A128837
:102D300082420ED9A14A12888A420AD92246FFF756
:102D4000EFFF9B4904FB04F00988BDE81040FFF742
:102D5000ABBD10BD4FF0D841088070474FF0DA414D
:102D6000088070472DE9F0471F280DD801FB00F4BB
:102D700040F2FE36651EB54206D803FB02F543F667
:102D8000FE76013DB54201D9BDE8F087090405048E
:102D90004FEAD408264C4FF0000991FBF3FE0A9944
:102DA00095FBF2FC089DF1B11FFA89F188451ED907
:102DB0000026082E06D06F5CB740FFB2FF09A7556A
:102DC0000136F6E7344409F10109EDE70026082E43
:102DD00006D06F5CB740FFB2FF09A7550136F6E792
:102DE000344409F101091FFA89F18845EED80CF144
:102DF000010A104EDFF838C00EF1010E4FF0000846
:102E00004FF000099945BFD04FEA1841002500272F
:102E100001FB00C1BA4205D02C0C55440C5DF455A1
:102E20000137F7E71644F04409F10109EAE700BF6A
:102E3000088E0020084E00202DE9F04F87B005468F
:102E4000581A0C464FF0010BDFF864834FF000096D
:102E500048BF404201B20691511B48BF4942DDF8CC
:102E600018C00EB20F466645C8BF07460497C8BFD4
:102E70000846002107B2A3424FF0000038BF4FF0D0
:102E8000FF3B6645C8BF58460390AA424FF0010079
:102E900038BF4FF0FF3066450290C8BF0146019130
:102EA000C8BF4FF0000B059660464FF00201C8BF47
:102EB000304690FBF1FA109E0FFA89F0874231DB21
:102EC00028B2B0422BDBB8F800103044884226DC30
:102ED00020B2B04223DBB5493044098888421EDC69
:102EE0000120A1B2324601230090A8B2FFF76AFB8D
:102EF00004985C44039982440FFA8AF08742DCBF4D
:102F00000C44AAEB070A01998742029829440D460E
:102F1000D8BF0544DDE905208242C8BF0D4609F14E
:102F20000109C9E707B0BDE8F08F00BF2548006878
:102F3000704700BF1E494880704700BF1C4A51803F
:102F4000108070471F490860704700BF184908800B
:102F5000704700BF16490880704700BF2DE9FC414B
:102F60000446154E124D1348904F4FF0000828604C
:102F7000F3883888C01A81B28D4802880020FFF794
:102F8000EFF84BF6AA10F388B28828800D48066047
:102F90003888CDE90048C01A81B20020FFF77CFADA
:102FA0004FF47A700221BDE8FC4104F079BC00BF07
:102FB000480900200000FFFF140000200800002046
:102FC0000600002024000020FEE7704770B5C2789C
:102FD0001149A2B1154A072312684578867804780A
:102FE00023EA12220F23D340C2F10402334005FA30
:102FF00002F21A430B19120183F8002300E080311A
:103000000078012300F01F02C0F3421003FA02F21D
:1030100041F8202070BD00BF00E100E002490843F4
:1030200002490860704700BF0000FA050CED00E09F
:103030002DE9FC4790460D46FFF75EFC2846FFF75A
:1030400079FF5A4C5A480021002602882388002024
:10305000FFF786F84EF633604FF6FF71FFF76EFF0D
:1030600023880127002000215122CDE90077FFF7B6
:10307000D9FB504DDFF840E1DFF840914FF0280CCC
:103080001C230024D82C10D0C7EBC70128192E53BD
:103090000137183403EB81028900A0F804C0C0E9AD
:1030A000049E0673C2804180ECE74FF6FF70DFF8A4
:1030B00010A1444F4FF0000C01214FF0500E4FF083
:1030C00028091C24C5F8C80049F2B240C5F808C058
:1030D000C5F8B0004FF4FC60C5F898004FF61F002B
:1030E000C5F880004FF47840A86640F2FF7028656C
:1030F0001F20A8634FF6E07028620020A82814D093
:10310000C1EBC1032A181830013104EB83069B0080
:10311000A2F8DCE0A2F8D890C2E93A7A82F8E4C0DA
:10312000A2F8DE60A2F8DA30E8E70620284A294B48
:10313000002608242549C5F870010520C5F8E0607F
:1031400085F88C61C5F858010420C5F840010320BA
:10315000C5F828010220C5F810010120C5F8F800C3
:10316000C5E960321C4A1D4BC5F888411648092440
:10317000C5E96A321A4A1B4B85F8A461C5E9641097
:10318000C5E96632C5F8A041B6F5D87F04D0A819C4
:10319000016988471836F7E7134800210171C0F824
:1031A00000804046BDE8FC47FFF7D4BE0800002081
:1031B00006000020041A0020610A0008690C0008BB
:1031C000510A0008D90D0008390A0008ED0C000862
:1031D0005000FC002800E0000D0A00087D0B0008EC
:1031E000500018012800FC00FC1900207047000066
:1031F000044A002911680CBF21EA0000084310604E
:10320000704700BF14100240044A002911680CBF27
:1032100021EA000008431060704700BF1C10024004
:10322000044A002911680CBF21EA0000084310601D
:10323000704700BF1810024064480C4A016841F012
:103240000101016041681140094A41600168114073
:103250000160016821F480210160416821F4FE01D0
:1032600041604FF41F018160704700BF0000FFF80C
:10327000FFFFF6FE10B54A490A6802F00C03164A31
:10328000082B0BD10B68C3F383430C680233E403B0
:1032900002D50C68A40300D5104A5A430260104CB2
:1032A0000B68C3F30313E35CDA4042600B68C3F3BB
:1032B0000223E35C22FA03F383600B68C3F3C223A7
:1032C000E35CDA40074BC2600968C1F38131595CA5
:1032D000B2FBF1F1016110BD00127A0000093D005E
:1032E000C08E0008BC8E000801223849B2EB501F86
:1032F00004D04209022A14BF24312031096800F0A9
:103300001F0021FA00F000F0010070472448006817
:1033100000F00C00704700BF21490A6822F0F0025B
:1033200010430860704700BF2849B0F5803F0A6825
:1033300022F480320A600A6822F480220A6004D0F3
:10334000B0F5802F04D14FF4A0200A681043086024
:10335000704700BF12490A6822F4E0621043086017
:10336000704700BF0E490A6822F4605242EAC0006A
:103370000860704701490860704700BF6000424222
:10338000084307490A6822F47C121043086070471A
:1033900003490A6822F0030210430860704700BF27
:1033A0000410024081B00020009008480168009A93
:1033B000013289030092009902D4B1F5A06FF5D1D2
:1033C0000068C0F3404001B0704700BF00100240E9
:1033D000F8B54AB30646C8B214460D46C0F5807724
:1033E00097421AD2304629463A4600F097F9E01B38
:1033F00000213E443D44C4B2B1EB102F0DD0070A6A
:103400005FB1304629464FF4807200F087F906F527
:10341000807605F58075013FF2E730462946224661
:10342000BDE8F84000F07AB902A0BDE8F84005F028
:1034300033BD00BF5350495F464C4153485F506114
:103440006765577269746520746F6F20736D616C66
:103450006C2100000288002942F0400308BF22F0DE
:103460004003038070470000F8B5044600F098F967
:10347000D04DC24F102620206E60B847C4F30740DD
:10348000B847C4F30720B847E0B2B8472E60BDE89C
:10349000F84000F033B900BFF0B585B04FF480506C
:1034A00001210126FFF7BCFE04200121FFF7B8FE31
:1034B0001B481C4C6D461C4F294600902046B847BF
:1034C0001A48294600902046B847194829460090D6
:1034D0002046B8471748294600902046B847102094
:1034E0006D462061284600F0E5F84FF4007004F5C1
:1034F00020542946ADF80860CDF80A004FF400309A
:1035000001900020CDF80E004FF082700090204610
:1035100000F05BF820460121FFF79CFF05B0F0BDED
:1035200020000318000801404D1700084000030464
:10353000800003181000031070B5184E184C054693
:103540004FF4C04030602046022100F035F848B901
:103550003068411E00283160F5D10020002400F0C1
:10356000B1F819E02046294600F02DF84FF4C0408C
:1035700030602046012100F01FF848B93068411E34
:1035800000283160F5D1012000F09CF8002403E010
:10359000204600F016F80446E0B270BD2800002076
:1035A00000300140B0B5834C1025AB206560FFF7BB
:1035B000C3FF2560B0BD00BF0089084018BF0120CF
:1035C000704780897047818170470A88038803F4B7
:1035D00041531A434B881A438B881A43CB881A43AA
:1035E0000B891A434B891A438B891A43CB891A4397
:1035F0000280828B22F400628283098A01827047F2
:103600002DE9F0410E466B49054610205B4F1446EC
:10361000486003208846B847C6F30740B847C6F35A
:103620000720B847F0B2B84734B10020FFF784FF55
:1036300005F8010B013CF7E71020C8F80000BDE8D1
:10364000F08100BF2DE9F0415A4810274B4E4760EA
:1036500080469F20B0470020B04704460020B04776
:1036600005460020B0472902C8F8007041EA04412D
:103670000844BDE8F08100BF2DE9F0410C46054645
:1036800000260FF2240809A7B44208BFBDE8F08164
:10369000300602D1404604F067FFA95D384604F0C9
:1036A00063FF0136F0E700BF0D0A2000307825786F
:1036B000200000000021C16081604160016007219D
:1036C00001827047014601A004F04EBF3C3C2D46EC
:1036D0004C4153482D4552524F522D3E3E2053509F
:1036E0004920B5C8B4FDB3ACCAB1216572726F721E
:1036F000436F6465203D2025640A000010B52D4C01
:10370000102060600520FFF717FF0020FFF714FF6F
:10371000C007FAD11020206010BD00BF2DE9F04194
:1037200015460E46044600F03BF813491020134F8F
:10373000486002208846B847C6F30740B847C6F33A
:103740000720B847F0B2B847B5F5805F0AD90CA09A
:1037500005F0A2FB4FF4805504E014F8010BFFF7CD
:10376000EBFE013D002DF8D11020C8F80000BDE8A7
:10377000F041FFF7C3BF00BF100801403935000812
:103780005350495F464C4153485F506167655772DB
:1037900069746520746F6F206C6172676521000029
:1037A000B0B5044C102506206560FFF7C5FE256006
:1037B000B0BD00BF100801402DE9F04F9DB04FF49F
:1037C000F07001214FF00108FFF72AFD9D486C467B
:1037D0009E4D214600909C4800F50066824630468A
:1037E000A84702202146ADF800003046A847042033
:1037F0002146ADF800003046A8470827304621464C
:10380000ADF80070A847102021464FF01009ADF820
:1038100000003046A847202021464FF0200BADF88D
:1038200000003046A8474FF480502146ADF8000014
:103830003046A8474FF400502146ADF8000030460E
:10384000A8474FF480402146ADF800003046A84715
:103850004FF400402146ADF800003046A8470AF575
:1038600040662146ADF800803046A8470220214638
:103870004FF00208ADF800003046A847042021466A
:10388000ADF800003046A84730462146ADF800703C
:10389000A84730462146ADF80090A847304621465B
:1038A000ADF800B0A8474FF400602146ADF8000025
:1038B0005046A8474FF480502146ADF800005046CE
:1038C000A8474FF400502146ADF800005046A847E5
:1038D0004FF480402146ADF800005046A8474FF411
:1038E00000402146ADF800005046A847012021467F
:1038F000ADF800005046A84750462146ADF800807C
:10390000A84780200AF580672146ADF800003846B8
:10391000A8474FF4807B38462146ADF800B0A84751
:103920004FF4007938462146ADF80090A8474FF48F
:10393000806838462146ADF80080A8474FF4006003
:103940002146ADF800003846A8474FF48050214684
:10395000ADF800003846A8474FF400502146ADF8B6
:1039600000003846A8474FF480402146ADF80000DB
:103970003846A8474FF400402146ADF800003846CD
:10398000A84750462146ADF800B0A847504621460A
:10399000ADF80090A84750462146ADF80080A847F2
:1039A00030462146ADF80080A84720202146ADF8DA
:1039B00000005046A847102650462146ADF800604A
:1039C000A84702202146ADF800003846A84701204C
:1039D0002146ADF800003846A8474FF48070012119
:1039E000FFF706FC00200221CDE91600CDE9190001
:1039F000CDE91B00CDE90F00CDE91300159018911A
:103A0000CDE911104FF480410B910421CDE902065C
:103A10000C900A90CDE9001004F110001421FCF77D
:103A2000AAFB0FA80E9016A80D904FF48050099095
:103A30002046FDF765FC04200121FDF74FFC1DB079
:103A4000BDE8F08F01000318001401404D17000875
:103A500010B529A004F088FD00204FF480114FF02C
:103A6000D042002319B1985401390133FAE70020FC
:103A70004FF0D041B0F5801F02D040540130F9E73B
:103A800000214FF0D040B1F5801F09D00A5C4B1CDB
:103A9000C9B28A421946F6D022A004F065FD24E09E
:103AA00025494FF0D0400022884202D020F8022B56
:103AB000FAE700204FF0D0410022B2F5002F03D0EA
:103AC000425202300132F8E700204FF0D04100228C
:103AD000B2F5002F0BD0435A541C92B202309342DD
:103AE0002246F5D015A005F0D7F9002010BD18A08A
:103AF00005F0D2F9012010BDD5FDD4DABCECB2E25C
:103B00005352414DA3ACD2D438CEBBA1A23136CE54
:103B1000BBB5C4B7BDCABDB6C1D0B47372616D2E9A
:103B20002E2E000038CEBBCAFDBEDDB6C1D0B4B467
:103B3000EDCEF3A3A1000000000010683136CEBB2B
:103B4000CAFDBEDDB6C1D0B4B4EDCEF3A3A1000072
:103B50005352414DB6C1D0B4B2E2CAD4D5FDB3A3DD
:103B6000A3A1000070B50E4C4FF0D045A2200D4E21
:103B7000A22128702046B04742F6A22042F6A22198
:103B8000288009A0B0470E48144B4FF0204228600F
:103B90000CA0B04720466A213246BDE8704010476D
:103BA0007A28020869850008B6C1B3F6B5C4CAFD13
:103BB000BEDDCEAA323A20307825780A0000000017
:103BC000CD4CA742B6C1B3F6B5C4CAFDBEDDCEAA80
:103BD000333A203078252E32660A000099E95440A5
:103BE0007047000010B59AB0044605A005F054F9DE
:103BF00001A82146FCF7D1FA04F0D0FB1AB010BDA1
:103C00000A2A2A2A2A2A2A2A2A2A2A2066696C6546
:103C10005FC2B7BEB6B2E2CAD4202A2A2A2A2A2A0A
:103C20002A2A2A2A0D00000003F01ABE82B0364864
:103C3000364A016841F00101016041681140344A8F
:103C40004160016811400160016821F48021016038
:103C5000416821F4FE0141604FF41F0181600021A1
:103C600001910091016841F480310160016801F423
:103C700000310091019901310191009919B901991F
:103C8000B1F5A06FF2D10168890354BF0021012171
:103C900000910099012930D11E490A6842F01002B2
:103CA0000A600A6822F003020A600A6842F002020F
:103CB0000A604168416041684160416841F4806147
:103CC0004160416821F47C114160416841F4E81190
:103CD0004160016841F08071016001688901FCD593
:103CE000416821F003014160416841F002014160F7
:103CF000416801F00C010829FAD107484FF0006132
:103D0000016002B0704700BF001002400000FFF8E1
:103D1000FFFFF6FE0020024008ED00E02DE9F84329
:103D2000244F0C4605464FF000094FF001080026CD
:103D3000B6F5D87F08BFBDE8F883B85BA84209D8BC
:103D4000B8194188A14205D88188A94202D3C18807
:103D5000A14209D2B819017B012903D180F80C9046
:103D6000016988471836E3E7017B0029FAD180F81A
:103D70000C80F5E7B0B50F4B0022B2F5D87F08BF35
:103D8000B0BD9C5A844209D89C1865888D4205D8DC
:103D9000A588854202D3E5888D4201D21832ECE72E
:103DA0000020216920732046884761692046BDE8CC
:103DB000B0400847041A002010B5544C40F2255179
:103DC000204600F021F840B1204600F0A1F8C1B231
:103DD0002046BDE8104000F09FB810BD8289002940
:103DE00042F4005308BF22F4005383817047002A35
:103DF000828A0CBF22EA0101114381827047008848
:103E0000084018BF0120704701F01F02012303FA88
:103E100002F2C1F34213022B06D0012B14BF00F1B2
:103E2000140300F10C0301E000F110031B8800886B
:103E3000090AC84012EA030118BF0121084070476F
:103E400010B501F01F03012404FA03F3C1F3421477
:103E50001421022C08BF1021012C08BF0C21002ABC
:103E600042580CBF9A431A43425010BD70B586B0F9
:103E700004460D46C88801AE218A21F4405108430A
:103E80004EF6F3112082A0890840A98808432989A9
:103E9000084369890843A081A889A18A21F4407157
:103EA0000843A0823046FFF7E5F9184906F10800FB
:103EB00002226FF063038C4208BF06F10C00192147
:103EC00000684843B4F90C10002948BF0122296852
:103ED00004259140B0FBF1F06421B0FBF1F202FB4C
:103EE0000300B4F90C30002B48BF0325A840323042
:103EF000002BB0FBF1F04FF00F0148BF0721084045
:103F000040EA0210208106B070BD00BF00380140B9
:103F100080886FF35F2070476FF35F218180704767
:103F2000FEE770B50D4604460426300606D0290E7D
:103F3000204603F082FD2D02013EF6E72046402197
:103F4000FFF75DFF0028F9D170BD81B000904FF000
:103F5000FF30009901308842FBD301B07047000068
:103F60007CB54FF4C0700121FFF75AF91448FB4C9F
:103F700001AD144E2946019004F58060B0474FF41E
:103F800000602946ADF804002046B0470E48294697
:103F900001902046B0470D48294601902046B04781
:103FA00020464FF48061FDF735FC482029468DF806
:103FB00007004FF40070ADF804002046B0477CBD08
:103FC000800001104D170008400001480004011056
:103FD0002DE9FC47804668460D4600F0B3F80028FE
:103FE00049D0DFF898A0BDF902709AF8000000EB04
:103FF0004004BDF9000005EBC406FCF79FF98146BB
:1040000055F834004946FCF729F904463846FCF7D0
:1040100095F90746D6E901063946FCF71FF901462E
:104020002046FCF7C3F801463046FCF7BFF8FCF722
:104030008EF9A8F800009AF8000000EB400005EBAC
:10404000C00101F10C05494631CDFCF707F90646E0
:1040500020463946FCF702F901463046FCF7A6F83F
:1040600001462846FCF7A2F8FCF771F9A8F802000F
:104070000120BDE8FC870020BDE8FC87040000208B
:104080002DE9F041B54D2E4C06464FF4806128468F
:10409000A04728464FF40061A047A84605F5806573
:1040A00080212846A0470027082F1ED006FA07F0D7
:1040B000000605D540464FF40061FDF7ADFB04E076
:1040C00040464FF40061FDF7A5FB0520FFF73DFFDB
:1040D00028468021FDF7A0FB0520FFF736FF284684
:1040E0008021FDF797FB0137DEE740464FF4006182
:1040F000FDF790FB28468021FDF78EFB002400276A
:104100000B2C14D828468021FDF784FB4046402123
:10411000FDF776FB064628468021FDF77DFB701EE5
:104120000134B0FA80F0400940EA4707E8E740462A
:104130004FF48061FDF770FBB8B2BDE8F08100BFBD
:10414000151800082DE9F0478CB001AD80462821F4
:104150002846FCF710F8814C4FF400712046FDF71B
:104160004FFBE8BBA24600260DF12E090BAC4846DA
:10417000214600F093F8BDF82E00BDF82C1025F86C
:10418000160005EB4600818250464FF40071FDF7A2
:1041900037FB771C082E02D800283E46E7D0504651
:1041A0004FF40071FDF72CFB10B13B48002101706A
:1041B000F8B20A2814D1BDF904E0BDF918C00124F1
:1041C000724673460A2C0DD035F914601F4601342F
:1041D000B342B8BF3746B242D4BF3B463246F1E79E
:1041E000002055E005F11606002764466146092FB8
:1041F0000BD036F917000D4601378142B8BF05468E
:104200008442D4BF29460446F1E7AEEB0200BDF973
:104210000620BDF90A50BDF90C60C01ABDF908307E
:104220001044BDF90E201844284430441044BDF910
:1042300010201044BDF912201044BDF91420104480
:10424000BDF916201044C008A8F80000ACEB04002B
:10425000401ABDF91A100844BDF91C100844BDF9F4
:104260001E100844BDF920100844BDF9221008446E
:10427000BDF924100844BDF926100844BDF92810E2
:104280000844BDF92A100844C008A8F8020001201B
:104290000CB0BDE8F08700BF073E0020B0B5054672
:1042A00090200C46FFF7ECFE28800120FFF74DFE22
:1042B000D020FFF7E5FE208002B203A0B5F9001080
:1042C000BDE8B04004F050B9B4A5C3FEB5E3205832
:1042D0003A20307825782020593A30782578200AFD
:1042E0000000000010B5FD4C2078C00704BF00207E
:1042F00010BD2178607801F0FE010228217009D0FC
:1043000001280FD038BB15484FF40071FDF778FA3B
:1043100030B91EE011484FF40071FDF771FA58B141
:10432000002017E00D484FF40071FDF769FA30B135
:104330000020A4F801000EE00220607007E0A078E1
:10434000411C0428A17004D30220A4F8010001201C
:1043500010BD01206070022010BD00BF001C014094
:104360001CB5818804464FF6FF70814202D1E18876
:1043700081420FD061882088FFF7D0FCB4F900207B
:10438000B4F90230B4F90400B4F90610024C0094F8
:10439000FCF700FE1CBD00BFFC19002010B5FFF7A4
:1043A000A1FF012813D11FA004F076FD144C26496B
:1043B0002046FFF70DFEB4F90010B4F9022023A047
:1043C00004F0D2F82046FFF7CBFF206816E00C4C33
:1043D0002088618801404FF6FF70814205D1A18895
:1043E000E2881140814200D110BD06A004F054FDC6
:1043F000204600F031F84FF0FF302060606010BDC3
:1044000030000020204964656E7469667920746804
:10441000652073637265656E206279206C6F6F73BF
:10442000656E00000A4964656E7469667920746877
:10443000652073637265656E2062792070726573A2
:1044400073696E670000000038000020783D256425
:104450002C793D2564000000014680884FF6FF72EC
:10446000904208BF7047C988FFF784BC2DE9F04F20
:1044700095B09A4A8046B2F92E00B2F93470B2F97A
:1044800024B0B2F93650B2F926A0B2F92C60ABEBE9
:1044900007011490401BAAEB0502119013914843A9
:1044A000F11B914602FB110412912046FBF746FFD7
:1044B000002C00F0D2808949CDF80C80109006962F
:1044C000CDF838A00F95CDF82C90B1F90E00B1F9C8
:1044D0001680B1F90630B1F904200490A0EB08066B
:1044E0001198A3EB080A0D92B1F90C2005930AFB71
:1044F00000F00C9206FB1900FBF720FF8146139891
:10450000129970430AFB1100FBF718FFDFF8CCA1EA
:104510000446BAF93C00FBF711FF06460A90BAF9C7
:104520003E00FBF70BFF0546099048463146CDF8A3
:104530000890FBF793FE0646204629460194FBF7B8
:104540008DFE01463046FBF731FE059B08FB0BF163
:10455000049C069D149A06460897CDF81CB003FBF0
:10456000171104FB07F008FB150051430E9A00FBDE
:10457000021003FB05F10F9A04FB1B1101FB020063
:10458000FBF7DCFE014630460591FBF70FFE109964
:10459000FBF796FEFBF7DBFEBAF91E105246B1EBB5
:1045A000000AB8BFA0EB010AB2F91440DDF834806C
:1045B000DDF830B011980B99A8EB0406ABEB0407BB
:1045C000704307FB1100FBF7B9FE8146139812995F
:1045D000784306FB1100FBF7B1FE0A9906464846F0
:1045E000CDF84C90FBF73AFE0999074630461296F3
:1045F000FBF734FE01463846FBF7D8FD079F089EBF
:1046000081460F9A0BFB06F004FB07F104FB150033
:1046100008FB1611149C61430E9C00FB041008FB60
:1046200005F10BFB171101FB0200FBF787FE0446A7
:104630004846109F2146FBF7B9FD3946FBF740FE7F
:10464000FBF785FE2549B1F91C100A1AB8BF421ABA
:1046500042EA0A0080B20F2801D900203AE01398FC
:104660003946FBF72DFE039E1D4A06EB460142F834
:104670003100059802EBC1053946FBF721FE686160
:1046800001983946FBF71CFE286102983946FBF772
:1046900017FEE86020463946FBF712FEA860129824
:1046A0003946FBF70DFE68600EA0314603F05CFF53
:1046B000002615A4052E09D801CDFBF761FE0246A0
:1046C00020460B4603F050FF0136F3E70DA004F03F
:1046D000E3FB012015B0BDE8F08F00BF4C090020BE
:1046E00038000020CFD4CABEC4A3CABDA1BE256471
:1046F000A1BFD0A3D7BCCFB5CAFDC8E7CFC2A3BA6C
:10470000000000000D000000253132662C00000082
:104710002DE9F04F9BB07148FEF714FC4FF6A62030
:104720004CF6C061FEF70AFC00F012F9DFF8B0A108
:104730006C4EDFF8B491DFF8E081002502AC042D67
:104740005BD0BAF80030328800200021FDF708FD68
:104750003788C847808865A1202300916A49B7FB44
:10476000F0F01B384208204603F00EFFBAF80000B4
:1047700021464008FDF7BCFD3788C84780880221E4
:1047800005F1010B2023CDF800B0B7FBF0F00138A4
:1047900090FBF1F220465DA103F0F6FEBAF800703E
:1047A000C847C0882146C0EB570080B2FDF7A0FD86
:1047B0005848FDF7E3FC48F6DD30FEF7C7FB08EB91
:1047C000C507012238F835000123798800921422A8
:1047D000FDF7F8FE4DF63420FEF7B8FB38F835004B
:1047E0007988FDF7B5FF4D4800EBC5052846FFF772
:1047F000A9FC0028FAD05D46A1E70620FFF736FEA7
:10480000BAF800303288044600200021FDF7A8FCE9
:10481000012C1FD143F2D2004EF21261FEF78EFB43
:104820004FF6A6202C3080B2FEF794FB3488FEF7BA
:104830007DFB808841A1202300913349B4FBF0F037
:104840001038420802A803F09FFEBAF800000124C5
:10485000400836E04FF6A6202C3081B243F2D20059
:10486000FEF76CFB4FF47840FEF774FB3488C847C2
:104870008088254D2AA120230091B4FBF0F002ACE2
:1048800029460E384208204603F07EFEBAF80000A2
:1048900021464008FDF7F8FC3688C847808824A1E7
:1048A000202300912946B6FBF0F009384208204643
:1048B00003F06AFEBAF80040C847C08800EB540015
:1048C000002480B202A9FDF7DFFC6FF07F40FDF706
:1048D00055FC20461BB0BDE8F08F00BF1C00002037
:1048E00008000020060000202D2F0008546F75637B
:1048F000682043616C69627261746520B4A5C3FE6F
:10490000D0A3D1E92E2E2E00B5280208252A632532
:1049100064000000FFFF0F00500900207009002014
:1049200043616C696272617465206661696C000044
:1049300074727920616761696E00000043616C697F
:1049400062726174652053756363656400000000E2
:1049500010B50B480C4B0B4A00881B88810800EBF4
:1049600040009C089180918103EB43018008D4832F
:10497000D480890890839082D182D18110BD00BFFC
:10498000060000204C0900200800002070B5414EB0
:104990000C460546200408BF70BD02CD3046FFF727
:1049A000C0FA013CF6E700BF10B5130407D00B684E
:1049B00004689C4205D1013A04310430F5E7012036
:1049C00010BD002010BDF0B58BB00F46044601208D
:1049D00001211D461646FEF70BFC4FF48040694648
:1049E0000A904FF400500990002008904FF40060A6
:1049F00007904FF400700690802005904020CDE98C
:104A00000370109802902046CDE90065FCF74AF843
:104A100020460121FCF72EF80BB0F0BD7CB5064610
:104A200012A014460D4604F037FA184831462A46BB
:104A30002346C0E9006410200090154800F0D0F82B
:104A4000144C802101222046FFF7D1F9FA200221DF
:104A500002F026FF20468021FFF7D1F90028F9D087
:104A60000DA0BDE87C4004F017BA00BF0ABFAACA77
:104A7000BC20524F4DB5BD5553415254B5C4B4AB93
:104A8000CBCDB3F5CABCBBAF0000000018090020B5
:104A900044000240003801400D524F4DC4DAB4E6E4
:104AA000B5BD5553415254CDE2C9E8B5C4444D415A
:104AB000B2D9D7F7CDEAB1CF000000007CB50646E9
:104AC00013A014460D4604F0E7F9002031462A46AB
:104AD000234600901648FFF776FF4FF40010FBF7CF
:104AE000D5FF0028F9D0144C124814222146FFF7B4
:104AF0005BFF18A111A2002808BF1146084604F068
:104B0000CBF920461421BDE87C40FFF73FBF00BF32
:104B1000BFAACABC20524F4DC4DAB4E6B5BD52415B
:104B20004DC4DAB4E6B5C4444D41B2D9D7F720003C
:104B30006C00024040CA0008AC190020524F4DC41E
:104B4000DAB4E6B5BD444D41B2D9D7F7D2ECB3A340
:104B500020000000524F4DC4DAB4E6B5BD444D41CB
:104B6000B2D9D7F7D5FDB3A3200000007FB54FF42D
:104B700000100121FEF748FB08200121FEF750FB41
:104B8000124C11486E46314604F5384500902846CF
:104B9000FCF7DCFD0E48314600902846FCF7D6FDB8
:104BA0004FF480406946ADF80C000A4802900A486C
:104BB00001900A4800902046FCF7C8FE20460121DB
:104BC000FCF768FE7FBD00BF4000031C005400409E
:104BD0008000031C5F0000040000FFBF801A060075
:104BE000F0B58BB00E460746012001211C46154644
:104BF000FEF7FEFA00204FF480510A90CDE908013B
:104C00004FF4006107914FF40071069180210591E6
:104C1000CDE903601098694602903846CDE900540A
:104C2000FBF740FF38460121FBF724FF0BB0F0BD36
:104C300010B504464FF0FF30E0620020207120469E
:104C400003F0BEFA08B1032010BDB4F82E024AF6F4
:104C5000552188421CBF022010BD94F8671094F8BB
:104C6000682094F86600090241EA024101440948BB
:104C7000814204BF002010BD94F8832094F8843052
:104C800094F88210120242EA03421144081A18BF33
:104C9000012010BD4641540010F8012B0AB18A4290
:104CA000FAD11046704742690239023A91422FBF49
:104CB0000020826A807801FB00207047F8B50D461D
:104CC000044671B12046294603F0F8F802283CBF9B
:104CD0000120F8BD411C20D061692F46884206D2D0
:104CE000F8BDE76817B16069874200D301273E46E7
:104CF00060690136864228BF022601D3022F0AD3FB
:104D00002046314603F0DAF8411CE9D040B10128D1
:104D1000E6D0BE42ECD10020F8BD4FF0FF30F8BD28
:104D2000204631466FF0704203F066FA014635B115
:104D300029B920462946324603F05EFA014629B1D8
:104D40000120012908BF4FF0FF30F8BD2069E6605F
:104D5000411C05D001382061607940F0010060718C
:104D60003046F8BD2DE9F84F0021044600F003FB62
:104D700008B1BDE8F88F4FF6FF764FF0FF094FF00E
:104D80000D08FF2726842068216903F019FA0028FE
:104D9000EFD165692878E52809D0002800F08180E6
:104DA000EA7A02F03F0112070BD50F2909D02684B9
:104DB0004FF0FF092046002100F076F80028E2D0ED
:104DC000D7E70F290BD1D4F81CA0BAF1000FF1D00E
:104DD000410619D45FFA89F18842E9D119E05FEA06
:104DE000096004D1284603F03BFB874256D0A069F6
:104DF000C17AC907DBD100210B294FD0425C6B5C23
:104E000001319342F8D0D2E7E1886F7B00F0BF090F
:104E10002184687B8742CBD1688B0028C8D1287851
:104E2000009700F03F0000FB08F04FF00008A0F1F1
:104E30000D0B0120B8F10D0F1DD09C4911F8081081
:104E40006E5A80B1BBF1FE0F1DD8304601F0F8FC60
:104E500007463AF81B0001F0F3FC874213D10BF12F
:104E6000010B304604E04FF6FF7086420BD1002064
:104E700008F10108DEE748B1287810F0400005D0BD
:104E80003AF81B0010B14FF0FF0901E0A9F1010948
:104E9000009F4FF6FF764FF00D088BE70020BDE82E
:104EA000F88F0420BDE8F88F2DE9F8430446C08848
:104EB000461C30044CD00F462169002948D0256893
:104EC00068894009B6FBF0F202FB106090B9481CFB
:104ED000E168206151B1A8780138104209D1284613
:104EE00002F0ECFF02280CD2022732E02889864229
:104EF0002ED2002005EB40100027E68030306061A4
:104F000027E0804601302BD02568686980450DD2A6
:104F100028464146C4F80C80FFF7C5FE2061688929
:104F20004009B6FBF0F101FB1060E3E787B1E168EF
:104F30002846FFF7C3FE8046013003280CD21B49E8
:104F400001EAC0001A4921FA00F0C0B2BDE8F883B6
:104F500004273846BDE8F883206803F0C9FA08B191
:104F60000127F6E7206800214FF000094289303020
:104F700003F020F9256841462846FFF794FE0127F3
:104F8000E862A97889450CD228462F7103F0B0FA5F
:104F90000028DED1256809F10109E86A0130E862DC
:104FA000EFE7A0EB0900E862B2E700BFF8FFFF00FF
:104FB000010702002DE9F84FDFF850B30446FF2740
:104FC00004254FF00D084FF6FF7A4FF0FF092169D5
:104FD000002957D0206803F0F3F8002850D1606909
:104FE0000178002950D02E291BD0E52919D0C27A8A
:104FF00002F01F03082B14D002F03F020F2A49D100
:105000004A0603D4FAB2914206D00AE0E28890F848
:105010000D9001F0BF072284417B894501D1418B6E
:1050200041B1FF27204600210025FFF73DFF002862
:10503000CDD025E00278E1690126002302F03F028D
:1050400002FB08F20D3A0D2B0FD01BF80350455B05
:1050500036B1FE2AE5D821F8125001322E4602E080
:105060005545DED100260133EDE7007840064FF0CC
:10507000000003D5FE2AD4D821F81200013FD1E761
:10508000054602E00DB90EE0042500202061E8B2DB
:10509000BDE8F88F390603D103F0E2F9814502D06B
:1050A0004FF0FF3020840025F1E700BF30CA000830
:1050B0002DE9F04F89B0D0E90654064604A80C2229
:1050C000294603F06FF89DF81B100396C80703D11B
:1050D000880768D4012470E0CDE9011400240DF1A3
:1050E0001C0A4FF001094FF0030BEC72F461864E7D
:1050F0000AF10708B9F1640F00F0F680284604A908
:105100000B2203F04FF80299B9F1060F484610D36D
:105110000A8872B1102353B102F00107013B520813
:1051200047EA4007000448BF77403846F3E70231BA
:10513000EEE70622014608EB0203013A6BF31F116A
:10514000392988BF073103F8061C0109B4EB101F89
:105150000846EFD108EB02007E2100F8061C501C27
:10516000002181420CD26B5C202B09D07F33DBB253
:105170007D2B02D8914202D001310131F1E7114675
:1051800007289ABF1AF80020013020226A54013102
:105190000829F5D30398FFF7E5FD002840F0A1802A
:1051A00009F10109A6E7002034F8101001300029A8
:1051B000FAD118300D21B0FBF1F43046002100F097
:1051C000DAF80746B0B900253068316902F0F8FF17
:1051D00078B970690078E52800D018B90135A54282
:1051E00001D10CE0002530460121FFF75DFE0028CB
:1051F000EAD00746042F08BF0727002F75D1B4F166
:10520000010852D0039CE088A0EB0801204600F082
:10521000B2F80746002868D1A06903F021F9DFF849
:10522000EC9082464FF6FF764FF0010B039C20680E
:10523000216902F0C5FF002864D160690F21D4F80C
:105240001CC05FFA88F300220024A0F80B100D2187
:10525000471C428380F80DA04B430D3BB44219F824
:1052600002501ABF3CF8134001334FF6FF74210A75
:105270000132002C7955445508BF34460D2AEDD132
:10528000B44204D03CF813100029414601D148F043
:10529000400101700398016881F804B00021FFF714
:1052A00003FE78BBB8F10108C0D1039C20682169D6
:1052B00002F086FF0746C0B960690021202200275E
:1052C00002F078FFD4E905010B2202F06BFFD4E96C
:1052D0000501C97A01F018010173012120680171EB
:1052E00003E0B9F1640F04D10727384609B0BDE8DF
:1052F000F08F039E07460428F7D10199029CE972BA
:10530000F461E5E60746F0E72110010030CA000825
:105310002DE9F041018C0446C6884FF6FF708142AA
:10532000204608BF314600F026F8054610B1284651
:10533000BDE8F0814FF0E5080127002520682169CC
:1053400002F03EFF90B960690021202202F032FF96
:10535000606980F8008020680771E088B042E6D27A
:1053600020460021FFF7A0FD0028E7D0042808BF51
:105370000220BDE8F0812DE9F0418768C180012F4E
:105380003FD006688046706987423AD20D46B7B171
:105390007189B078490901FB00F4A5421BD330465E
:1053A000394602F08BFD074601302DD0022F28D35D
:1053B000D8F800607069874223D22D1BEDE7307862
:1053C000032802D1776A002FE2D13089A84218D988
:1053D000706A002703E030463946FFF764FCC8F8DE
:1053E0000C7070B171894909B5FBF1F202FB1151E2
:1053F000104406EB41113031C8E904010020BDE83A
:10540000F0810220BDE8F0810120BDE8F081012893
:105410001CBF0120704780B5FEF73EF8FEF7C2F8CA
:105420000120BDE8804000F025B8012808D10329FB
:1054300008D0022908D0012902D14FF4A06005E06C
:1054400004207047012001E04FF4805010600020DC
:10545000704701281CBF0420704710B54FF400109E
:1054600000EB023408461A032146FEF7C9F8002073
:1054700010BD000001281CBF0120704780B5FEF759
:10548000E1F80249401A18BF012080BD1740EF0023
:1054900070B50D460146042001290ED11C4663B1AA
:1054A0004FF4001000EB02363046FDF7DDFF22031B
:1054B00028463146FDF78CFF002070BD10B504462C
:1054C00001F03EF800B110BD204603F037F8002887
:1054D000F9D10020206010BD10B5044603F02EF86D
:1054E00000B110BD0021216010BD2DE9FE4F8A469C
:1054F00002901546104602A9002201F05FFA08B199
:10550000BDE8FE8FD5F80080D8E90474A01E87425C
:1055100018D998F80090B9F1010F15D1002702268B
:105520004046314602F0CAFC20B1411C42D001285D
:1055300001D13DE00137D8F8140001368642EFD39F
:10554000002038E000203EE0D8F820B0CDF804A0DC
:1055500008F1300A00270020002148B9404659468A
:1055600002F02EFE08BBB8F80A000BF1010B514601
:10557000B9F1020F04D10B886FF0010202260CE092
:105580008E78CD784B780A78360465F31B6646EA48
:105590000323042613446FF00302002B08BF0137D6
:1055A00010443144013CD8D10020DDF804A002E0D1
:1055B000022000E0012098F80510C8F8107041F0B2
:1055C000010188F80510CAF80070BDE8FE8F2DE9CA
:1055D000F0410E46044602F0B1FF0546002840F0B7
:1055E000A380E579002D40F09F80E568B5420AD29E
:1055F000A079800708D5A0460020354658F8081F36
:10560000C8F8000007E03546A046002758F8081FF4
:10561000C8F80070BDB320688278438903FB02F6A6
:1056200039B16B1E0139B1FBF6F2B3FBF6F39342CD
:1056300004D22169002956D0616104E0704208401B
:105640006169A0602D1AE1B1B54258D9A2792068EC
:10565000920703D402F032FC014604E0FFF72EFB70
:10566000014600284DD0481C47D002295AD3206853
:105670004069814256D2A0686161AD1B3044A06090
:10568000E2E7D8F80070002620684189B7FBF1F204
:1056900002FB1171E9B1A26996421AD0A1794906BB
:1056A0000CD5407804F1240101230125FFF7F0FE19
:1056B000C8BBA07900F0BF00A0712068407804F159
:1056C0002401324601230125FFF7C3FE58BBA7681A
:1056D000A661E068874204D9A079E76040F0200025
:1056E000A071002520E00021FFF7E8FA0146013013
:1056F00003D0012916D021619EE7012513E02E4633
:1057000000E00021A268206897194289A760B6FBD3
:10571000F2F505FB1262002AB5D0FFF7C4FA08B112
:105720002E18B1E70225E5712846BDE8F0812DE984
:10573000F04FADF5117D909002F038FC044687A83B
:1057400090A9012201F03AF9054638BB04A89099C6
:105750008E9084A88D9087A802F036FA054600281E
:1057600008BF0825042D19D1879E00210025304649
:10577000FFF7A4FA002808BF07258146012808BFC3
:105780000225013008BF012525B9304602F0B0FEE0
:1057900048B105463046494602F0D5FD28460DF58C
:1057A000117DBDE8F08F30464946FFF77CFA7289DB
:1057B00006F1300807460021404602F0FBFC404657
:1057C00020210B2202F0F6FC200E4FF02E0A494653
:1057D00086F84640039086F84900200C86F830A0F1
:1057E000029086F84800200A019086F847001020B1
:1057F00086F83B00404602F02DFE06F1500541467A
:105800002022284602F0CEFC3178899886F851A0F3
:10581000032904D1716A411A18BF014600E001460C
:10582000284602F017FE96F802B04FF0010A5FEA30
:105830000B6010D0304686F804A0F76202F058FEE4
:105840000028A6D172894046002102F0B3FCABF1DA
:10585000010B0137EBE787A8FFF72AFC08B1879E09
:1058600097E78C980399417602998475017601999E
:10587000C1751021C172494602F0ECFD87980121E3
:10588000017102F0FBFD054688E700002DE9F04FAD
:105890008DB001290C9001D913272FE00CA81646D2
:1058A0000D4602F0EBFB002821D4DFF8401501EB98
:1058B00080014C68ECB15FFA80FB002158462170F2
:1058C000FFF7A5FDC10716D1400716D404F10A0A57
:1058D000584602215246FFF7A8FD30B9BAF8000039
:1058E000A0F50070B0F5606F0CD9012706E00B271A
:1058F00004E00C2702E0032700E00A2738460DB039
:10590000BDE8F08F0AAA584601210127FFF78DFD57
:105910000028F3D10A988028F0D34FF0000E002D14
:10592000A6F1010108BF4FF03F0EA0EB0E0C0E4296
:10593000CDF828C018BF00269EB9BAF800104FF461
:10594000FA62DFF8B034490AB2FBF1F1BCFBF1F2C4
:10595000DFF89C14023933F8026B0231B242FAD3F9
:105960000E88B6F5007F03D3BAF80010B6FBF1F647
:10597000002E08BF012640F6F5710127802E28BFB2
:105980008026BCFBF6F38B424FF6F57188BF0227E9
:105990008B424FF6F67188BF032708938B420AD3D8
:1059A000BAF800104FF0000801EB83020732B2FB97
:1059B000F1F0202216E0012F06D103EB4301032270
:1059C000013102EB510102E0042101EB4301BAF87D
:1059D00000204FF480431144B3FBF2F80139B1FBCE
:1059E000F2F0012202EB0E030792A6EB0E011A461B
:1059F00004931A1802EB080949448C4501D20E277A
:105A00007CE709900BAA58460321CDE90587CDF81C
:105A10000CE0FFF70AFD20B90B9B581EB0F5004FB4
:105A200001D301230B93DDF820C04FF6F57E002152
:105A300009EB03085B420022F44588BF01210A9F5D
:105A40000598F4454FF0000E0297A7EB0000A8F16F
:105A5000010703EA0703A3EB0903E1460B9388BFA1
:105A60009E46079FDDF824807744A0EB0700079748
:105A700098BF98440023A0EB0800B0FBF6F74FF660
:105A8000F670874240F6F67038BF012301978742CF
:105A900038BF0122DDF818C00E27ACF10200B0FAC1
:105AA00080F04009104208BF11EA03007FF426AFDE
:105AB0004FF6F570814501D90C270CE002990620BC
:105AC000B1F5803F38BF0420074638BF0127BCF13D
:105AD000010F18BF0746002DCDF800E0CDF8248057
